:020000040800F2
:10000000D0170020210F0008450C00080D0F000834
:100010000D0F00080D0F00080D0F00080000000074
:100020000000000000000000000000001D1000089B
:100030000D0F000800000000E90F0008092000086B
:100040005111000851110008511100085111000808
:1000500051110008511100085111000851110008F8
:1000600051110008511100085111000851110008E8
:1000700051110008511100085111000851110008D8
:1000800051110008511100085111000851110008C8
:1000900051110008511100085111000851110008B8
:1000A00051110008511100085111000851110008A8
:1000B0005111000851110008511100085111000898
:1000C0005111000851110008511100085111000888
:1000D0005111000851110008511100085111000878
:0C00E000511100085111000851110008D6
:1000EC0080F0004002E000BF81F0004142001FBFE1
:1000FC005FEA410392EA030F7FEA226C7FEA236CEA
:10010C006AD04FEA1262D2EB1363C1BFD2184140DE
:10011C0048404140B8BF5B42192B88BF704710F074
:10012C00004F40F4000020F07F4018BF404211F017
:10013C00004F41F4000121F07F4118BF494292EA7F
:10014C00030F3FD0A2F1010241FA03FC10EB0C00AB
:10015C00C3F1200301FA03F100F0004302D5494238
:10016C0060EB4000B0F5000F13D3B0F1807F06D3E5
:10017C0040084FEA310102F10102FE2A51D2B1F1DD
:10018C00004F40EBC25008BF20F0010040EA0300D2
:10019C007047490040EB0000013A28BFB0F5000F52
:1001AC00EDD2B0FA80FCACF1080CB2EB0C0200FA08
:1001BC000CF0AABF00EBC25052421843BCBFD04057
:1001CC001843704792F0000F81F4000106BF80F4D1
:1001DC0000000132013BB5E74FEA41037FEA226C94
:1001EC0018BF7FEA236C21D092EA030F04D092F05F
:1001FC00000F08BF0846704790EA010F1CBF002093
:10020C00704712F07F4F04D1400028BF40F00040EF
:10021C00704712F100723CBF00F50000704700F00F
:10022C00004343F0FE4040F4000070477FEA226236
:10023C0016BF08467FEA23630146420206BF5FEA07
:10024C00412390EA010F40F4800070474FF0000307
:10025C0004E000BF10F0004348BF40425FEA000CCE
:10026C0008BF704743F0964301464FF000001CE076
:10027C0050EA010208BF70474FF000030AE000BFCC
:10028C0050EA010208BF704711F0004302D540420A
:10029C0061EB41015FEA010C02BF8446014600207C
:1002AC0043F0B64308BFA3F18053A3F50003BCFA97
:1002BC008CF2083AA3EBC25310DB01FA02FC634444
:1002CC0000FA02FCC2F12002BCF1004F20FA02F24B
:1002DC0043EB020008BF20F00100704702F120023E
:1002EC0001FA02FCC2F1200250EA4C0021FA02F29F
:1002FC0043EB020008BF20EADC7070474FF0FF0CA4
:10030C001CEAD0521EBF1CEAD15392EA0C0F93EA9E
:10031C000C0F6FD01A4480EA010C400218BF5FEA40
:10032C0041211ED04FF0006343EA501043EA5111B3
:10033C00A0FB01310CF00040B1F5000F3EBF4900AD
:10034C0041EAD3715B0040EA010062F17F02FD2AB1
:10035C001DD8B3F1004F40EBC25008BF20F0010094
:10036C00704790F0000F0CF0004C08BF49024CEAAB
:10037C00502040EA51207F3AC2BFD2F1FF0340EA3D
:10038C00C250704740F400004FF00003013A5DDCAE
:10039C0012F1190FDCBF00F000407047C2F10002EF
:1003AC00410021FA02F1C2F1200200FA02FC5FEADC
:1003BC00310040F1000053EA4C0308BF20EADC7026
:1003CC00704792F0000F00F0004C02BF400010F498
:1003DC00000F013AF9D040EA0C0093F0000F01F045
:1003EC00004C02BF490011F4000F013BF9D041EA67
:1003FC000C018FE70CEAD15392EA0C0F18BF93EA69
:10040C000C0F0AD030F0004C18BF31F0004CD8D192
:10041C0080EA010000F00040704790F0000F17BF19
:10042C0090F0004F084691F0000F91F0004F14D05F
:10043C0092EA0C0F01D142020FD193EA0C0F03D1B7
:10044C004B0218BF084608D180EA010000F00040BA
:10045C0040F0FE4040F40000704740F0FE4040F495
:10046C00400070474FF0FF0C1CEAD0521EBF1CEA34
:10047C00D15392EA0C0F93EA0C0F69D0A2EB030252
:10048C0080EA010C49024FEA402037D04FF08053EC
:10049C0043EA111143EA10130CF000408B4238BFB1
:1004AC005B0042F17D024FF4000C8B4224BF5B1ABF
:1004BC0040EA0C00B3EB510F24BFA3EB510340EA0D
:1004CC005C00B3EB910F24BFA3EB910340EA9C00BB
:1004DC00B3EBD10F24BFA3EBD10340EADC001B012B
:1004EC0018BF5FEA1C1CE0D1FD2A3FF650AF8B42CF
:1004FC0040EBC25008BF20F0010070470CF0004CDC
:10050C004CEA50207F32C2BFD2F1FF0340EAC25006
:10051C00704740F400004FF00003013A37E792F0C7
:10052C00000F00F0004C02BF400010F4000F013A25
:10053C00F9D040EA0C0093F0000F01F0004C02BF20
:10054C00490011F4000F013BF9D041EA0C0195E789
:10055C000CEAD15392EA0C0F08D142027FF47DAF22
:10056C0093EA0C0F7FF470AF084676E793EA0C0F12
:10057C0004D14B023FF44CAF08466EE730F0004C10
:10058C0018BF31F0004CCAD130F000427FF45CAFA0
:10059C0031F000437FF43CAF5FE700BF4FF0FF3C0E
:1005AC0006E000BF4FF0010C02E000BF4FF0010C61
:1005BC004DF804CD4FEA40024FEA41037FEA226C2A
:1005CC0018BF7FEA236C11D001B052EA530C18BF4C
:1005DC0090EA010F58BFB2EB030088BFC81738BFB1
:1005EC006FEAE17018BF40F0010070477FEA226C9F
:1005FC0002D15FEA402C05D17FEA236CE4D15FEA9B
:10060C00412CE1D05DF8040B704700BF84460846CE
:10061C006146FFE70FB5FFF7C9FF002848BF10F18F
:10062C00000F0FBD4DF808EDFFF7F4FF0CBF0120D4
:10063C0000205DF808FB00BF4DF808EDFFF7EAFF5E
:10064C0034BF012000205DF808FB00BF4DF808ED19
:10065C00FFF7E0FF94BF012000205DF808FB00BF0E
:10066C004DF808EDFFF7D2FF94BF012000205DF894
:10067C0008FB00BF4DF808EDFFF7C8FF34BF0120A1
:10068C0000205DF808FB00BF4FEA4002B2F1FE4FBC
:10069C000FD34FF09E03B3EB12620DD94FEA002338
:1006AC0043F0004310F0004F23FA02F018BF404211
:1006BC0070474FF00000704712F1610F01D14202F8
:1006CC0005D110F0004008BF6FF0004070474FF0AC
:1006DC000000704753B94AB9002908BF00281CBF55
:1006EC004FF0FF314FF0FF3000F00CB8ADF1080CBB
:1006FC006DE904CE00F01BF8DDF804E0DDE902231F
:10070C0004B07047704700BF430803F05533C01A5C
:10071C0000F03333800800F0333018444FF00133CD
:10072C0000EB101000F00F305843000E70472DE90D
:10073C00F04786468C460846154674461946089E70
:10074C00002B40F0C2808542B2FA82F245D94AB100
:10075C00C2F1200300FA02FC2EFA03F3954043EA9F
:10076C000C0C94404FEA154EBCFBFEF8A8B20EFBE5
:10077C0018CC08FB00F9230C43EA0C43994528D903
:10078C00EB1808F1FF3704D2994502D9A8F10207FA
:10079C002B44A3EB0903B3FBFEFC0EFB1C330CFB3D
:1007AC0000F0A4B244EA0344A04214D92C190CF171
:1007BC00FF3304D2A04202D9ACF102032C44241A18
:1007CC0043EA07401EB10023D44034607360BDE897
:1007DC00F0874746DDE76346F1E792BB0121431BF7
:1007EC004FEA154EB3FBFEFCAFB20EFB1C330CFBF9
:1007FC0007F8200C40EA0343984562D9EB180CF13A
:10080C00FF3004D2984502D9ACF102002B44A3EB83
:10081C000803B3FBFEFC0EFB1C330CFB07F7A4B266
:10082C0044EA0344A7424ED92C190CF1FF3304D2ED
:10083C00A74202D9ACF102032C44E41B43EA00406A
:10084C00C0E7C2F12003954020FA03F12EFA03F31E
:10085C004FEA154EB1FBFEFC90400343AFB20EFBCA
:10086C001C100CFB07F8190C41EA0041884504FAEE
:10087C0002F422D969180CF1FF3004D2884502D950
:10088C00ACF102002944A1EB0801B1FBFEFC0EFB0C
:10089C001C110CFB07F79BB243EA01439F420ED994
:1008AC00EB180CF1FF3104D29F4202D9ACF10201DA
:1008BC002B44DB1B41EA004192E76046E3E76146CB
:1008CC00F7E76046A3E76346B7E7834206D916B954
:1008DC00002108467BE7C6E900E0F9E7B3FA83F7A5
:1008EC008FB9834201D3724508D8BEEB020460EB8A
:1008FC00030301209C461EB9002168E73846FAE73D
:10090C00C6E9004CF8E7C7F1200CBB4022FA0CF406
:10091C001C434FEA144920FA0CF3B3FBF9F8B84026
:10092C002EFA0CF101430EFA07F509FB18301FFAE9
:10093C0084FE08FB0EFA0B0C43EA00439A4502FABC
:10094C0007F240D9E31808F1FF3004D29A4502D9D6
:10095C00A8F102002344A3EB0A03B3FBF9F809FB4B
:10096C00183308FB0EFE89B241EA03418E452CD99F
:10097C00611808F1FF3304D28E4502D9A8F10203A5
:10098C00214443EA0040A0FB0298A1EB0E01414533
:10099C00CE46434602D306D14D4504D2B9EB020EE6
:1009AC0068EB04030138002EA6D0B5EB0E0261EB08
:1009BC00030101FA0CFC22FA07F34CEA0303F94099
:1009CC00C6E9003198E74046C5E74346D9E7000041
:1009DC0010B5064802F049FF054C204603F036FBE3
:1009EC002046BDE8104002F0DFB800BF164A0008F0
:1009FC00D001002037B5094C094D236A002BFCD0DF
:100A0C0000220DF106010023204601F08FFDBDF8F8
:100A1C000610284609B202F028FFEEE7A8010020D4
:100A2C001E4A000808B50848084983685B6898475F
:100A3C00002300220649074801F028FDBDE80840C4
:100A4C00054802F012BF00BF30450008A800002086
:100A5C00C4050020A8010020224A000873B5134CDD
:100A6C00134E144D2378BBB9134802F0FEFE01233C
:100A7C002370124803F0EAFA114802F0F6FEC8227D
:100A8C0000232846CDE900233222002302F0D2FBBA
:100A9C000C4803F026FBE5E7304602F0E6FE0023A7
:100AAC002370284603F0EBFBF2E700BFC6050020DD
:100ABC00444A000870010020244A0008400200202B
:100ACC00354A0008D001002038B5244C2068026952
:100ADC008168136823F4005313600B684FF4803261
:100AEC000D219847002802DA1D4802F0BEFE20684E
:100AFC0083689D691DBB1B4802F0B7FE1A491B4B4E
:100B0C0020684B604FF400538B608368DB69FBB942
:100B1C00174802F0AAFE1748174983681B689847C4
:100B2C00002802DA154802F0A0FE0122144B1548E9
:100B3C005A600C221A8202F098FE002038BD4FF049
:100B4C0080634FF0A0720D21A8470028D6DAD2E7B7
:100B5C00012298470028DEDADAE700BFBC0000204B
:100B6C00554A00086B4A0008A0040020DD09000863
:100B7C008C4A00083045000846470008A34A000884
:100B8C00A8000020BB4A0008014B1B68184700BF97
:100B9C00C0000020014B1860704700BFC00000204F
:100BAC0030B585B004460D4610220021684603F08E
:100BBC00FBFB02238DF80230044B2A462146684683
:100BCC00019302F089FB05B030BD00BF950B000806
:100BDC0080B505460E461746984602F0D5F80346F2
:100BEC0003F0EAFB0446DFF81890424649F800305F
:100BFC0039463046A84754F8090000F0A1F900BF67
:100C0C0008000000034A0020536823F002035360DD
:100C1C00704700BF002004E0044A0020136843F032
:100C2C0010031360024B034A1A6070470020024005
:100C3C003401002000127A0008B5034B1B6898475A
:100C4C00BDE8084000F026B8C400002030BFFFF714
:100C5C00FDBF00BF2DE9F04105460B4EDFF82C809F
:100C6C00324606EB0807CC1B2046094903F08EFBE5
:100C7C00A01942460021083C03F096FB6C6607F174
:100C8C000800BDE8F08100BF000000000400000077
:100C9C0040470008074A936893F90E10002907DBB8
:100CAC00526993421FBF044A536843F08053536008
:100CBC00704700BF9805002000ED00E0134B9A6AC6
:100CCC0012F0007F9A6A14BF1E201D2012F0807F44
:100CDC009A6A18BF1F2012F4002F9A6A18BF21209D
:100CEC0012F4802F9A6A18BF222012F4003F9A6ADD
:100CFC0018BF232012F4803F9A6A18BF24206FEA91
:100D0C0002426FEA12429A62704700BF00ED00E0A7
:100D1C0010B5164B9A6A9C6A12F4805F14BF1722A6
:100D2C00162214F4006F9C6A18BF1822A40509D56A
:100D3C009A6B9A6A120404D518B19A6A22F400428A
:100D4C009A621922094B986A10F4806F986A18BF3E
:100D5C001A2210F4807F986A40F47F4098624FF01A
:100D6C0000030CBF10461B200B7010BD00ED00E003
:100D7C0010B5154B0246986A9C6A10F0100F14BF00
:100D8C001120102014F0080F9C6A18BF1220A40721
:100D9C0009D5586B986A000604D51AB19A6A22F0E4
:100DAC0080029A621320084B9A6A12F0010F9A6A19
:100DBC0018BF1420D20658BF9A6A9A6A42F0FF02F2
:100DCC009A6200230B7010BD00ED00E0F0B5474BAC
:100DDC0004465B6800258BB0C3F3080385F31188C8
:100DEC00BFF36F8F02F07F40B0F17F4F11D102F053
:100DFC000C0008280DD010074CBF0C460125002212
:100E0C00033B8DF80720032B05D8DFE803F02462A1
:100E1C00665F2C46F3E700239DF80720CAB902AEA3
:100E2C0004F12007324620686168083403C2BC42D2
:100E3C001646F7D1099A002D53D0C2F3080121B9F7
:100E4C006FEA52226FEA42220992184602A902F076
:100E5C001AFD0BB0F0BD254BDA6A9107DBD4DA6AC8
:100E6C00002AD8DBDA6A5200D5D55A69A16942F456
:100E7C0080725A61BFF34F8FBFF36F8F5A6931F88D
:100E8C00021C22F480725A61BFF34F8FBFF36F8F35
:100E9C004DF60272914209D09A6AD2B242B1012047
:100EAC000DF10701FFF764FF0346B5E72368B3E7CD
:100EBC009A6A12F47F4F05D001200DF10701FFF75C
:100ECC0027FFF1E79B6AB3F5803FA4D3FFF7F6FE4B
:100EDC00EAE700200DF10701E4E700200DF107011E
:100EEC00EDE722F4FF7222F00102ADE700ED00E025
:100EFC00024A536943F010035361704700ED00E060
:100F0C00EFF30880EFF3098101B57246FFF75EFF3E
:100F1C0001BD00BF102080F3118808484FF4006118
:100F2C00401880F30988EFF314800221084380F302
:100F3C001488BFF36F8F00F09FF80000D00A0020D8
:100F4C00084B9B6883420BD1EFF3058343B1064BEF
:100F5C005A6842F080525A605A6A22F400425A622D
:100F6C0003F050B99805002000ED00E06FF00A0185
:100F7C00084A9368D966084998664B6843F08053D1
:100F8C004B60002383F31188BFF36F8F9368D86E87
:100F9C00704700BF9805002000ED00E0EFF31183CF
:100FAC00102383F31288BFF36F8F4FF00061084A50
:100FBC0053699360074A5160596E074A11600021CA
:100FCC009A6E996682F31188BFF36F8F704700BFDA
:100FDC009805002000ED00E0AC0400200B498A6865
:100FEC004FF030001044EFF3098C80E8F01F74468A
:100FFC007046FFF7D3FFA64604498A6802F1300019
:10100C0090E8F01F8CF309887047000098050020C9
:10101C001EF0040F0CBFEFF30880EFF30980816919
:10102C0011F8021C0229FFD001B502F032FC01BDFF
:10103C0040B2002807DB01234109034A00F01F00DE
:10104C00834042F82130704700E100E040B20028B4
:10105C0001F10101ACBF00F16040064B4FEA0111F8
:10106C00C9B2ABBF00F5614000F00F0080F800136F
:10107C001954704714ED00E008B5094B094A23F0E8
:10108C00604323F07F039360BFF34F8FBFF36F8FE9
:10109C0001F056F901F004FF00F048F801F090F966
:1010AC000000000800ED00E042F8203C009B0B49DA
:1010BC0042F81C3C019B21F0010142F8183C029BB8
:1010CC0042F8081C42F8143C4FF0807342F8043C80
:1010DC000023203A02658366704700BFDD0B0008D1
:1010EC000B4B0E469860416E0A4B154619602C4608
:1010FC0086F309884FF00000074B984720464FF0C5
:10110C0000014FF000024FF00003044C204700BFD9
:10111C0098050020AC040020AF380008DD0B000857
:10112C001022014B1A61704700ED00E000231021E2
:10113C000348C21801332B2B82F80013F9D17047E6
:10114C0000E100E008B5EFF30583064A103B02EB23
:10115C00C30152F8330049688847BDE80840FFF7DF
:10116C0099BD00BF5845000808B5024B1B6898474D
:10117C00002008BDB0040020034B044A186093788B
:10118C0043F0020393707047B0040020C8000020A5
:10119C0008B50649064821F00701C1F1005202F5D5
:1011AC00A04202F023FB002008BD00BF99190020CB
:1011BC00B40400202DE9F041054600244FF001084D
:1011CC000D4E0E4F2B78E2B298181F280DDC726969
:1011DC0008FA00F333EA020207D1736157F8303092
:1011EC001BB107EBC002516898476A780134E3B22F
:1011FC009A42E7D2BDE8F08100040140C00400200F
:10120C00044B184400230133994200F8012BFADCFB
:10121C00704700BF4401002010B4064B024618561C
:10122C000123054993400C6823430B6010BCFFF766
:10123C00FFBE00BF44010020000401401F2806DC53
:10124C000122034982400B6823EA02030B607047BA
:10125C000004014003292AD8DFE801F0020E141F14
:10126C000122134B8240996821EA02019960D968E6
:10127C0021EA0202DA60704701220D4B8240996824
:10128C001143F3E701220A4B8240D9681143D9601C
:10129C00996821EA02029A607047012303FA00F070
:1012AC00034B9A6802439A60DA681043D86070471F
:1012BC000004014030B50A4B53F830408C4204D145
:1012CC0003EBC0056D68954205D034B943F8301076
:1012DC0003EBC0035A60002030BD6FF00F00FBE73A
:1012EC00C00400200022034B43F8302003EBC00362
:1012FC005A607047C004002070B50B7913F02002BF
:10130C0018D10C78082C15D14C78042C12D14C889F
:10131C00406894B143F6FF718C4218D0284E00F10E
:10132C00160535F8021F314389B28C4206D00132C2
:10133C00082AF6D16FF0150008E0224690F9281023
:10134C0039B10139C9B20129F4D8002070BD072286
:10135C00F4E703F01F0303EB4301092B8ABF1E398B
:10136C0043EA015343EA01534FF0007191FAA1F1A2
:10137C00B1FA81F198BF43F0007303F00074CC40D4
:10138C004FF0F87191FAA1F1B1FA81F107260068DA
:10139C0003F0F8730C3050F8245023FA01F106FADC
:1013AC0001F125EA01054FF0F87191FAA1F1B1FABA
:1013BC0081F1CB409A402A4340F82420C5E700BF76
:1013CC0000C0FFFF13B5436804461B680C489A68BD
:1013DC00D1075EBF9A6842F001029A608368DB68AD
:1013EC001BB1616801AA8968984763681B689A6891
:1013FC0042F004029A609A685207FCD402B010BD05
:10140C00684400082DE9F04F036989B04033064663
:10141C000D4602934FF0FF324FF0FF33029801F06C
:10142C00B5F9736834691F68AB68C4F89430D5F8A3
:10143C0004804046C4F8A080FFF766F9002284F8C7
:10144C00A40084F8A520B8F1000F09D0012807DC0E
:10145C00716891F92AC001F12800624503DB14D1AF
:10146C006FF0150489E050F8043F95F810E0BEEBDE
:10147C00D34F40F08980C3F30422C3F3423EC3F33D
:10148C00024CDBB2FF2B40F0818073684FF00009F7
:10149C0019680393336901F12C0BD3F8A0E04FF4D6
:1014AC00407393FAA3F30593B3FA83F30793BEF156
:1014BC00000F40F08A804B6843F480734B6094F8C3
:1014CC00A4302A685B0012B1928902FB0333EA68EC
:1014DC009A42C0F0C5806B7C002B40F0C480AB7C82
:1014EC0013B13046FFF76EFFBB6804F16406DB07EF
:1014FC005EBFBB6843F00103BB607B6843F0200315
:10150C007B602F460FCF0FC63B68336000262666E4
:10151C002B68002B00F0A0800FCB04F1780585E838
:10152C000F006566A4F88860002800F09580BFF372
:10153C005B8F54E8003F44E80062002AF9D1BFF306
:10154C005B8FA06F642263304FF0000346F1000103
:10155C00FFF7C0F80022CDE90001002304F10800D8
:10156C0001F068FE4FF0FF324FF0FF3304F15000F2
:10157C0001F00CF900B12066246E029801F0E2F83B
:10158C00204609B0BDE8F08F013266E70968C858FB
:10159C00D0400EEA000084453FF477AF8868C0075E
:1015AC000BD471680EFA02FE08680CFA02F2C158EC
:1015BC0021EA0E010A43C25067E7886820F0010057
:1015CC0088608868C007FCD4EBE79EFAAEF2B2FAEA
:1015DC0082F202EB4203092A95BF42EA03531E3BF7
:1015EC0043F0007342EA03530493039B93F92900DD
:1015FC0001282AD11D4B5FFA89FA53F82A00059B62
:10160C0000F44078002B079B0CBF4FF0200C9C463D
:10161C0028FA0CF85BF8283000F01F0C06931F23F7
:10162C0003FA0CF0069B23EA0000049B03F01F0353
:10163C0003FA0CF318434BF828000D48CB6A50F80A
:10164C002A0023F470030343CB62012303FA02F252
:10165C002EEA020E99442AE7204602F08FF981E720
:10166C006FF00B0489E76FF0850486E7EC47000800
:10167C00AC47000838B52C4B1A68920745D52B4C53
:10168C00DA6CD4F894302546991CC4F894101A805E
:10169C0094F8A53094F8A4200133DBB29A4284F874
:1016AC00A53032D1002384F8A530636E9BB3E36F71
:1016BC00B4F888203BB11E4804F164019847012816
:1016CC000BD0022822D0B4F88830B4F884209A4287
:1016DC001CD90133A4F8883003E0D4F89830C4F84E
:1016EC009430A36F23B9BDE83840104802F046B9D6
:1016FC00BFF35B8F55E8003F5A1E45E800210029D7
:10170C00F8D1012BBFF35B8FEDDC38BDA36F13B1A8
:10171C00084802F0B4FD4FF6FF73A4F8A630064853
:10172C00BDE8384001F00EB8002401400000002054
:10173C003045000808000020500000202DE9F3413E
:10174C004768044605693E68DFF87080404602F041
:10175C0030FC78B34FF6FF73C5F89040A5F8A6306F
:10176C006268D8F8083091681B6840469847002199
:10177C00786901AA02F0E0FA002818DB019B00222C
:10178C001979186800F084F9002810DB7B6803B124
:10179C0098472046FFF716FEB36843F46023B36006
:1017AC00AB6C1BB905F1400000F0CCFF002002B07F
:1017BC00BDE8F0816FF01200F9E700BF6844000843
:1017CC00104B18680B68052B0BD883B1023B032B0D
:1017DC0004D8DFE803F0021102140020106000208E
:1017EC007047182BFAD01C2B04D0142BF6D06FF0AA
:1017FC00850070474008F1E749F64040EEE70248A3
:10180C00ECE700BF3401002000127A00F8B53C4F21
:10181C0002F04CF9384602F048F900F0B5FC394CAE
:10182C00394A63681578C3F30313D35C47FA05F59B
:10183C0020FA03F6AE4202D2284600F0CBFC236815
:10184C0043F480232360236843F4803323602368AC
:10185C009B03FCD5636A43F001036362636A9807D8
:10186C00FCD5636803F00C03082B15D1236899078A
:10187C0006D4236843F00103236023689A07FCD540
:10188C00636823F003036360636813F00C0FFBD1F0
:10189C00636823F0F0036360236823F08073236094
:1018AC0000F036F8236843F08073236023689B01B3
:1018BC00FCD5636823F0F0036360636823F00303D3
:1018CC0043F002036360636803F00C03082BFAD146
:1018DC00AE4202D3284600F07DFC0C4B00201F606A
:1018EC00636823F4E06343F480636360636823F408
:1018FC0060536360636823F440436360F8BD00BFCA
:10190C0000A24A0400100240B44B0008340100202D
:10191C00054A536823F47C1343F4E813536053686B
:10192C0023F48003536070470010024008B5074849
:10193C0002F03FFB38B10648FFF71EFC0448FFF7E6
:10194C0029F9002008BD6FF01200FBE708450008DC
:10195C00611900080A2838B50446074D04D1AB6854
:10196C000D2128465B689847AB6803485B68E1B279
:10197C009847204638BD00BF0845000838B50369B4
:10198C0004465860084D284602F013FB40B16168CC
:10199C00AB6828461B680C31984700EAE07038BDEC
:1019AC006FF01200FBE700BF6844000870B50C46EE
:1019BC001146B1F5001F1E464568026923D10F235D
:1019CC0004F0030204329200934043EA94032E493C
:1019DC00DAB2023251F82220190C02EA134391FABE
:1019EC00A1F2B2FA82F2D340AA689A4209D12046F7
:1019FC00FFF724FC2046FFF775FC00212046FFF77B
:101A0C0029FC002070BDB1F5800F34D020461F4951
:101A1C00FFF750FC90BBB6F1806F28D0B6F1C06FC9
:101A2C0027D0B6F1007F2CD102210F2204F0030342
:101A3C0004339B009A4042EA9402D3B29B0003F118
:101A4C00804303F580339E68A86826EA1246150C7D
:101A5C0095FAA5F2B2FA82F200FA02F2324320466B
:101A6C009A60FFF7F7FB2046FFF7D6FBC9E7012189
:101A7C00DBE70321D9E76FF08500C3E76FF00F00B8
:101A8C00C0E76FF01500BDE700000140D13B000836
:101A9C002DE9F34703680446C3F38F25C3F3892369
:101AAC00FBB101228A4223D3324A15F0010F90690F
:101ABC0040F00100906192694FEA132002F001029C
:101ACC000192019A2C4AC3F3440300FA03F009BFB4
:101ADC005368D369034343F0E06316BF0343536079
:101AEC00D361264F04EBC106A64209D1002019E0B0
:101AFC0054F83200C0F38920984238D10132D1E732
:101B0C00D4E9002512F003090FD145F04105C2F3C9
:101B1C00870AC2F3831257F82280B8F1000F15D14F
:101B2C006FF0120002B0BDE8F087B9F1020FEED0F1
:101B3C00B9F1010F07D115F4C07F0CBF45F00205B8
:101B4C0045F00405E3E745F00105E0E7404602F007
:101B5C0030FA0028E4D04B462A4640460AF00F01E2
:101B6C0002F0D5F8002804F10804BDDADAE76FF0CA
:101B7C001500D7E70010024000000140D0480008D3
:101B8C00F8B50C2915460369466841D11A68B3F9B2
:101B9C003A3092681089327A584340F6FF7390FBC2
:101BAC00F3F07368002A31D0181AFEF753FB044681
:101BBC003068FEF74FFB01462046FEF753FC1749F1
:101BCC00FEF79CFB1649FEF791FA0446FEF75CFD06
:101BDC000746FEF73FFB01462046FEF785FA114902
:101BEC00FEF78CFB4FF04F410646FEF725FD90B9F2
:101BFC004FF09E413046FEF73DFD044658B9304645
:101C0C002F60FEF741FD68602046F8BDC01ACCE796
:101C1C006FF08500F9E76FF02100F6E70000204136
:101C2C000000C84100247449F8B53C29066901D06C
:101C3C000C292DD106F124074FF0FF324FF0FF3362
:101C4C00384600F0CBFC314651F8040B83681B6816
:101C5C0098470446B8B9104DAB68AB6843F4000321
:101C6C00AB600A2002F0BDFA314651F8100B8368C4
:101C7C005B689847044608B9338F7387AB68AB68C9
:101C8C0023F40003AB60384600F020FD2046F8BD7D
:101C9C006FF08504FAE700BF00240140F8B50C464C
:101CAC00036941685E682379012B33D09A1E554233
:101CBC005541AD026279022A96BF354F4FF4005C54
:101CCC0037F812C0A279042A27D0003B18BF012391
:101CDC001B03E279012A0A680CBF4FF440770027F6
:101CEC00A642D1681CD121F4B05129430B43D360D7
:101CFC00136923F4405343EA0C03136143681A68D5
:101D0C00536923F440733B4353613168BDE8F84099
:101D1C0002F089B84FF4C065CCE74FF48053D8E794
:101D2C0001F4C0618D421FBFD16821F4C061294309
:101D3C00D160426811680A6902F4405294451FBF91
:101D4C000A6922F4405242EA0C020A6142681168A4
:101D5C00CA6802F4805293421FBFCA6822F48052B0
:101D6C001343CB6043681A68536903F440739F4272
:101D7C001FBF536923F440733B435361216833689D
:101D8C00994203D002F04FF823683360F8BD00BFCE
:101D9C00104A00082DE9F0410C464368A6791D68ED
:101DAC000369D3F804800B794979012B33D10229CB
:101DBC004CD9042E47D04FF480574FF4C062032304
:101DCC008B4240D1002F79D0002A14BF0322042269
:101DDC00B24238D1E37963B1012B34D13A4B9D42F5
:101DEC0007D0A3F574439D4203D003F580639D4255
:101DFC0029D1EB68214623F40053EB60FFF74EFF2B
:101E0C00EB6843F40053EB6094E8030088E80300AC
:101E1C000020BDE8F081022B08D1022921D9042E23
:101E2C0011D04FF480624FF48057C8E702290A465C
:101E3C001FD9042E04D133B94FF480571A46BEE78C
:101E4C0063BB0329C4D06FF08500E2E71F4A042E60
:101E5C0032F811C0F7D04FF4C062033B012B10D8FD
:101E6C00F1E71A4A042E32F811C0ECD04FF480621C
:101E7C00F3E7164A042E32F811C016D1002BE2D12A
:101E8C001A464FF48057BCF5805F13D0BCF5405F09
:101E9C0012D0BCF1000F92D1012391E7033B012B2F
:101EAC00D1D90022BFE70022D7E7002BFBD11A467D
:101EBC001F46E8E7002383E7022381E7002A14BFCB
:101ECC000222032284E700BF00380140104A0008B8
:101EDC00F7B50546446806692648306002F069F893
:101EEC0018B96FF0120003B0F0BD3068E168836878
:101EFC001B6898470028F6DB0021206A01AA01F034
:101F0C001BFF0028EFDB019B002219791868FFF7F3
:101F1C00BFFD0028E7DB6E682B6934685F68E368F7
:101F2C0023F40053E360706802F043F80028D8D023
:101F3C00D6E901018368DB6803B1984704F10C030F
:101F4C0053E8003F43F00C0304F10C0141E800326C
:101F5C00002AF3D139462846FFF7A0FE337D1BB18A
:101F6C00636943F008036361E368002043F40053A2
:101F7C00E360B8E7684400084FF0E02310B50F4960
:101F8C009C691A6908689B690D4902F4803234B95E
:101F9C0093B903464AB90A681044C01A10BD002B05
:101FAC0008BF03460AB9A342F5D90A6802440A607D
:101FBC004FF0E0221269EEE70446F3E794050020A7
:101FCC009005002010220A4B002083F823204FF4A8
:101FDC00E152084B1A60084B41F61F4218604FF053
:101FEC00E0235A6198611A6942F007021A6170473E
:101FFC0000ED00E0940500209005002010B5FFF7DF
:10200C00BBFF1049104B0868D3E90042001942F19C
:10201C000002C3E9000200230B604FF4E1530B4AAA
:10202C00D2E90041001BB0FBF3F043431B1941F113
:10203C000001C2E9003101F00DF8BDE81040FEF7D7
:10204C0029BE00BF9005002028030020200300209B
:10205C002DE9F041DFF8E08099B1421C0BD14FF033
:10206C00E022136923F0010313614FF07F43C8F89A
:10207C000030BDE8F081D8F80060012807DC0027AB
:10208C000BE0431CD8F80060F7D140F6191040F66D
:10209C001A139842A8BF1846471EEFF31185102358
:1020AC0083F31288BFF36F8FFFF766FF4FF0E023C7
:1020BC00224C9969D4E9002380184FF0000243F1B7
:1020CC000003C4E900031E4B1A601E4B1A68831AE6
:1020DC002ED44FF4E15C0CFB073303F5E0531F33B4
:1020EC00B3FBFCF7131A0CFB0733B3F5806F38BF47
:1020FC004FF48063144A934228BF13464FF0E022FA
:10210C00C8F80030013B9069536100238142936110
:10211C00A1EB000338BF9B19D4E900125B1842F104
:10212C000002C4E9003285F31188BFF36F8FA0E77A
:10213C004FF48063E2E700BF9405002028030020E1
:10214C00900500202003002020DFFF0038B5EFF3BE
:10215C001185102383F31288BFF36F8F084B1C6813
:10216C00084B1B68E41AFFF707FF85F31188BFF3D0
:10217C006F8F4FF4E1532044B0FBF3F038BD00BF38
:10218C0028030020200300200D4A536803F00C01A3
:10219C00082912D10B48C3F38341DB03405C09D5FA
:1021AC005368094AC3F340435043084AD35CB0FB1D
:1021BC00F3F07047064B584370470348704700BF15
:1021CC0000100240C64B000800127A00C44B0008F5
:1021DC0000093D00D8B10F4B984216D80E4B9842CF
:1021EC0094BF002001200D4A136823F0070303431A
:1021FC001360136803F0070398421CBF136803F0C5
:10220C000703C01A18BF012070470220EBE701201A
:10221C00704700BF006CDC0200366E0100200240EB
:10222C0038B5EFF31185102383F31288BFF36F8F4A
:10223C00064B9C6801F0D0FE85F31188BFF36F8FBD
:10224C002046BDE83840FEF77BBE00BF9805002055
:10225C0038B5094B53F82040013053F82050A542B3
:10226C0000D838BD636823B1204601F0B8FE0834AD
:10227C00F5E723689847FAE7F8490008012270B59A
:10228C002A4B032086B01A70FFF7E2FF01F00CF81E
:10229C0001F0C1FE0420FFF7DBFF254C254D26463F
:1022AC00AE4204F1300410D300F0B0FC204C224EAE
:1022BC00AC4226D300F0BEFCFEF706FC1F4A137B93
:1022CC0023F00103137306B070BD54F80C3C059356
:1022DC0054F8103C049354F8143C039354F8183CF1
:1022EC00029354F81C3C019354F8203C009354E99D
:1022FC000A2354E90C0100F06FFA54F8303C5E6587
:10230C00CDE7D4E90A23B3F1FF3F08BFB2F1FF3F99
:10231C0005D052EA0301206803D101F097FE303456
:10232C00C6E73146183000F01BFEF8E7C705002061
:10233C00B04600084047000885410008A003002073
:10234C0008B50348034A0021121A01F060FE08BDCB
:10235C00D0010020CC050020702370B5134E012253
:10236C0003FB0066002386B0CDE904230F22019302
:10237C00CDE9023214230E4D0E4903FB00550446E1
:10238C0001EB00214FF4807230460B4B009500F0AE
:10239C0023FA737B2C7423F004037373074B0134FF
:1023AC0003EBC423EE606B6006B070BD30030020FD
:1023BC0098050020D012002025400008D00A0020EB
:1023CC00BFB50020FFF744FF284B83F30888284C47
:1023DC0000256369274E43F400736361F02384F88E
:1023EC002230E57725766576A57684F82050636AE9
:1023FC00214F43F4E0236362FEF77AFDFEF790FE73
:10240C004FF0FF3340F20112A362E3621B4B1C4CF2
:10241C009A81B3601D6601F0CBFD0120FFF718FF18
:10242C000220FFF715FF00F025FC164B7461059395
:10243C00012315494FF48062CDE9035320463B46F6
:10244C00CDE90155009500F0C7F90646627B2046A0
:10245C0022F00402627301F035FE2846FFF77CFF80
:10246C003A4631462046FEF73BFE00BFD012002014
:10247C0000ED00E0980500208922000810040020DF
:10248C00A0030020D64B0008D01300202DE9F34107
:10249C0004460E4600F10808EFF31187102181F372
:1024AC001288BFF36F8F056AC1688D422AD201F082
:1024BC007DFE31460546A26878B10024406901F0E2
:1024CC0065FF2846EC6601F0FDFD4046394600F0FC
:1024DC003BFB204602B0BDE8F081E06901F056FFFD
:1024EC000020E369A26813446269E361934204BF6C
:1024FC002369E361236A0133236287F31188BFF3F5
:10250C006F8FE7E752EA03010AD0074989684E61E9
:10251C00CDE9002339460246404600F0A5FAD9E73A
:10252C006FF02200E9E700BF98050020F7B50446DC
:10253C00084604F10807EFF31186102181F3128885
:10254C00BFF36F8F216A002931D0A268A16901F015
:10255C001DFFA369A268204613446269A3619342DC
:10256C0004BF2369A361236A013B236201F01EFEB1
:10257C00054660B34169A268E06901F007FFE369B1
:10258C00A268284613446269E361934204BF23693D
:10259C00E361236A013323620024EC6601F092FDAF
:1025AC003846314600F0D0FA204603B0F0BD52EA6E
:1025BC0003010AD0084989684861CDE900233146F6
:1025CC002246384600F050FAEFE76FF0220086F30F
:1025DC001188BFF36F8FE8E7980500202DE9F341D0
:1025EC00044617461E46EFF31188102383F3128816
:1025FC00BFF36F8FC368334A7BB1806891688842A0
:10260C0019D057EA060318D188F31188BFF36F8FDE
:10261C006FF00F0002B0BDE8F081916891F90E10D7
:10262C000133E36093682161A36088F31188BFF3E1
:10263C006F8F0020EEE72169F2E791F90E1090F907
:10264C000E306FF07E029942A8BF19469142B8BF76
:10265C0011468B422DDD01F0EAFC0546224641462F
:10266C00CDE90076184800F0FFF90028E1D0EFF32F
:10267C001186102383F31288BFF36F8FA068D0B13B
:10268C00236821699C420AD04BB193F90E309942D0
:10269C00A8BF19466FF07E039942B8BF194601F0E6
:1026AC00C6FC40B13146084800F04EFA6FF00A0003
:1026BC00B0E70025D2E7002DF4D186F31188BFF3E3
:1026CC006F8FF3E798050020C805002038B58368A4
:1026DC00044663B3194A926893422BD1C368012B09
:1026EC0003D9013BC360002038BDEFF311851023E3
:1026FC0083F31288BFF36F8F0169806801F097FC38
:10270C00204601F053FDA06058B190F90E202261D3
:10271C000022C26601F0D6FC2946094800F014FAE2
:10272C00E1E7E06085F31188BFF36F8FDBE76FF0B3
:10273C001500D9E74FF0FF30D6E700BF9805002011
:10274C00C805002038B50446EFF31185102383F338
:10275C001288BFF36F8F01F029FD48B10022C266C9
:10276C0001F0B0FC2946BDE83840074800F0ECB950
:10277C00D4E902329A4218BF0133A36085F3118861
:10278C00BFF36F8F38BD00BFC805002013B5EFF342
:10279C001181102484F31288BFF36F8F846844B1C5
:1027AC00013C846081F31188BFF36F8F002002B06D
:1027BC0010BD52EA030406D181F31188BFF36F8F69
:1027CC006FF00F00F3E7CDE900230246014800F05B
:1027DC004BF9ECE7C80500202DE9FF41984600F1C4
:1027EC005803C0E916330E9B002603730423D51D32
:1027FC00437325F007050D9B0D440F468373294643
:10280C00C0E906668660C6730446FEF723FA0C9B85
:10281C00073002930B9B20F0070001930A9B2D1AA3
:10282C0000932A46434639462046FEF73DFC054BAD
:10283C0066659B6803B11B6E2846236604B0BDE831
:10284C00F08100BF9805002038B50D4D2B4653F88C
:10285C00184F9C4200D004B9EC68AB6838B95A7B6D
:10286C00D20604D1A26912B9DA897F2A05D89C4212
:10287C0002D0204600F0BCFA23466B6138BD00BF85
:10288C009805002008B590F90D200146002A437BDD
:10289C0004DA03F07F03437301F0DAFB044B98680E
:1028AC00431A58425841BDE80840FFF7CDBF00BF5E
:1028BC009805002070B490F90D30427B002B29DB79
:1028CC00D30627D183692BBB134962F07F02427375
:1028DC000A4652F8184F944218BF2346CC6923B9C4
:1028EC00C0E900242060C8610CE090F90E5093F907
:1028FC000E60B5420AD0AE4208DD5A68C0E900321B
:10290C0010605860002070BCFFF79EBF9C42E7D05F
:10291C001B68E4E770BC704798050020002A2DE97D
:10292C00F0410E460CBF10210821427B0446114297
:10293C000FD141EA0203D20918D1437308291BD0E5
:10294C000120FFF781FFBFF35F8F637B23F06003F0
:10295C006373264B9B68A34241D1EFF30583002B95
:10296C003DD13046BDE8F041FEF700BB03F07F03DC
:10297C00437301F06DFBE1E7A36813B1204601F04E
:10298C006FFB04F1180001F05FFCA56D04F1580712
:10299C00AF4211D04FF0000875B1284601F060FB32
:1029AC0005F1180001F050FC2846C5F86C80FFF7C3
:1029BC0081FFA56DAF42EFD10C4DAB689C42BFD1EE
:1029CC00EFF30583002BBBD00120FFF73DFF40F256
:1029DC000112074B9A810022AB601A66B3E786F3AB
:1029EC001188BFF36F8FBDE8F08100BF9805002000
:1029FC001004002070B590F90D200146002A437B8D
:102A0C0004DA03F07F03437301F022FB154A4B7B7E
:102A1C00104663F07F034B7350F8183FD469834220
:102A2C0008BF002323B9C1E900042160D1610CE087
:102A3C0091F90E5093F90E60B5420ED0AE420CDDFA
:102A4C005868C1E90030016059609068BDE8704079
:102A5C00431A58425841FFF7F7BE9C42E3D01B681B
:102A6C00E0E700BF98050020F8B5124B0C46DDE9F5
:102A7C00067611469868104A1060EFF31182102206
:102A8C0082F31288BFF36F8F9D68284601F0F2FA2B
:102A9C00B6F1FF3F08BFB7F1FF3F06D03A463346C9
:102AAC00064905F1180000F05BFA2046BDE8F84035
:102ABC00FEF75CBA98050020B80500208541000897
:102ACC00F8B50446EFF31186102383F31288BFF395
:102ADC006F8F437B49B2DA0619D18569BDB903F012
:102AEC007F03437301F0B4FA437B164A63F07F0310
:102AFC0043731346817353F8180F984218BF054659
:102B0C00D0695DB9C4E900300460D46111E00020E3
:102B1C00A17386F31188BFF36F8FF8BD95F90E7012
:102B2C00B9420BD08F4209DD6B68C4E900531C60BD
:102B3C006C600120FFF788FE0120EAE7A842E1D093
:102B4C002D68DEE79805002049B9EFF3058030B910
:102B5C00054B5A699B689A4201D0FEF707BA81F37C
:102B6C001188BFF36F8F70479805002010B5EFF3F5
:102B7C001184102282F31288BFF36F8F427B5107AE
:102B8C0004D484F31188BFF36F8F10BD22F00402BC
:102B9C004273FFF78FFE2146BDE810400148FFF756
:102BAC00D3BF00BFC805002010B5EFF3118410226D
:102BBC0082F31288BFF36F8F427BD10604D484F367
:102BCC001188BFF36F8F10BD22F010024273FFF714
:102BDC0071FE2146BDE810400148FFF7B5BF00BFAC
:102BEC00C8050020034648B9EFF3058232B9064AFE
:102BFC0051699268914201D0FEF7B8B983F31188FC
:102C0C00BFF36F8F704700BF98050020EFF3118161
:102C1C00102383F31288BFF36F8F054B9A68D37B15
:102C2C00013BD37381F31188BFF36F8F704700BFE3
:102C3C009805002038B5EFF31185102484F3128821
:102C4C00BFF36F8F0A4B00209A68D37B0133D37389
:102C5C00FFF7FAFD85F31188BFF36F8FEFF3118047
:102C6C0084F31288BFF36F8FBDE83840FFF7BABF0B
:102C7C0098050020024B03F11802C3E906227047A5
:102C8C0098050020F8B5EFF31185102383F3128813
:102C9C00BFF36F8F19498868437B03F07F0343733D
:102CAC0001F0D6F908468B685A7B62F07F025A73A2
:102CBC0050F8182FCC69824208BF002222B9C3E910
:102CCC0000042360CB610CE093F90E6092F90E7056
:102CDC00BE420ED0B7420CDD5168C3E900210B6037
:102CEC0053600120FFF7B0FD2846BDE8F840FEF721
:102CFC003DB9A242E3D01268E0E700BF980500207E
:102D0C0050EA01032DE9F04105460E4603D1FFF7C9
:102D1C00B9FF00202BE0831C71F1FF3329DB01F09C
:102D2C00A8FA2C18EFF31188102383F31288BFF341
:102D3C006F8F124F124BB8681860FFF7A3FDB8687D
:102D4C0010492A463346183000F00AF9BA68404652
:102D5C00537B43F010035373FEF708F901F089FA23
:102D6C00201A63EB0303012873F10003D1DBBDE8E8
:102D7C00F0816FF00104241AD4E700BF98050020FD
:102D8C00B805002085410008014B9868704700BFCA
:102D9C00980500200122044BC01A044BC010584364
:102DAC00034B1A54704700BF80040020ABAAAAAA98
:102DBC00C8050020C3897F2B12D80A4B1B6863B14E
:102DCC00094B90F90E201B689A4209DB437BDB060A
:102DDC0006D1064BC31A18BF012303F0010070473C
:102DEC000023FAE738010020BC0500203003002046
:102DFC0070B50E4B0E4C1E7C182303FB0644054687
:102E0C00204601F021FA00220A4B28469A55FFF77A
:102E1C00D1FF48B1084B2046BDE870401A680749FD
:102E2C00013AD31700F09CB870BD00BF9805002084
:102E3C0080040020C805002038010020A12D0008C6
:102E4C0038B5EFF31185102383F31288BFF36F8F1E
:102E5C00104B114A9C681068A04206D1FFF7C8FFBE
:102E6C0085F31188BFF36F8F38BD00211B7C116077
:102E7C000A4AD35C002BF3D02046FFF79BFF0028B7
:102E8C00EED0637BDB0602D12046FFF7B3FD204674
:102E9C00E4E700BF98050020B8050020C805002015
:102EAC0008B50648064A0749121A01F0B2F8BDE8FF
:102EBC000840054A0549064801F0ABB8000000205F
:102ECC00D0010020284C000800000000284C00080D
:102EDC0000000020034B1B680BB9FFF737B900202B
:102EEC00704700BFC005002030B570B10B4B5B685C
:102EFC0098420AD0036843B1D3E90421D0E90445D0
:102F0C00121941EB0501C3E90421D0E90032136029
:102F1C005A600023C0E9003330BD00BF3C010020E3
:102F2C0010B50E4B1C689C4204D1FFF7D3FF6FF019
:102F3C00004010BDFFF7CEFF002CF8D0D4E90432CE
:102F4C001B1A62EBE072B3F1004F72F10001EEDA82
:102F5C00002AACBF18460020EBE700BF3C01002064
:102F6C00B3F1FF3F08BFB2F1FF3FF8B504461D4671
:102F7C0016465ED08160EFF31187102383F312881D
:102F8C00BFF36F8F013275F1FF3324DA6FF0010359
:102F9C002D49D1E900209B1A4FF0FF3262EB000063
:102FAC009E1B60EB0500012E70F1000301DA012677
:102FBC000020C4E90460254ED6F800C07568B445FD
:102FCC0008BF4FF0000CBCF1000F0DD1C4E9006537
:102FDC002C6074601CE0FFF77DFF013645F10005A5
:102FEC00361845EBE070E4E7DCE90420D4E9043161
:102FFC00934271EB000E1DDAD21ADCF8043060EB50
:10300C000100CCE90420C4E900C31C60CCF80440E6
:10301C003368B34209D09C4207D10D4B1C6824B9CC
:10302C00FFF77EFF2146FFF713F887F31188BFF3F4
:10303C006F8FF8BD9B1A61EB0001AC45C4E90431FC
:10304C00C4D0DCF800C0BEE7980400203C0100208E
:10305C00C00500202DE9F84FEFF3118C102383F3FA
:10306C001288BFF36F8FDFF8B0A0DFF8B0900024A8
:10307C00C9F80000DAF800000025504508BF002010
:10308C00274FE046D7E90021D9F8003078B3D0E9D2
:10309C00046C4FEAE37EB3427EEB0C0B05DAF61AB6
:1030AC006CEB0E04C0E9046421E0B21841EBE6714C
:1030BC00C0E90445C7E90021FFF716FF88F3118822
:1030CC00BFF36F8F83689847EFF31188102383F356
:1030DC001288BFF36F8FD9F80030DAF800009B1B11
:1030EC005045C446C9F80030CBD1D7E900210024A3
:1030FC009A1841EBE373C7E90023C9F80040FFF7C6
:10310C000FFF2146FEF7A4FF88F31188BFF36F8FE2
:10311C00BDE8F84FFFF794BE3C010020C00500202D
:10312C009804002010B5EFF31184102383F3128858
:10313C00BFF36F8FFFF7CEFE0346054AD2E90001BD
:10314C00181841EBE37184F31188BFF36F8F10BD36
:10315C0098040020F8B50446EFF31187102383F38D
:10316C001288BFF36F8F026822B187F31188BFF307
:10317C006F8FF8BDD0E90A36581C46F100010228C1
:10318C0071F1000127D3012B76F10001BCBF0123A3
:10319C0016465D1E46F1FF3601F06FF8013041F125
:1031AC000001401946EB0101012871F1000139DBE6
:1031BC0001F063F8013041F100016FF00102401998
:1031CC0046EB01034FF0FF31121A61EB030320466B
:1031DC001749FFF7C5FE236B01332363236A6BB1D9
:1031EC0087F31188BFF36F8F2046236A9847EFF35C
:1031FC001187102383F31288BFF36F8F54F8185F75
:10320C00A542B2D0002DB0D0284600F083FF002399
:10321C00EB6687F31188BFF36F8F2846BDE8F84043
:10322C0000F050BF6FF001024FF0FF33CFE700BF4B
:10323C00613100082DE9F04105461C4690461F46B9
:10324C00EFF31186102383F31288BFF36F8FB4F161
:10325C00FF3F08BFB2F1FF3F05D186F31188BFF3E2
:10326C006F8FBDE8F081531C74F1FF3309DB012A29
:10327C0074F10003BCBF0122002412F1FF3844F1A9
:10328C00FF37284600F0E0FFDDE906010023C5E921
:10329C000A012B6342463B4628460249FFF760FE73
:1032AC00DBE700BF61310008014800F0DEBA00BF67
:1032BC00DB4B000838B5064C064DAC4201D3002060
:1032CC0038BD2046D4E9011200F0F5FF1434F4E7C0
:1032DC00A8010020A80100202DE9F04F43688DB013
:1032EC000293837815469A07804640F10D8100249D
:1032FC000E78002E00F00A81252E0BD04B1C039368
:10330C00013441463046029B98470028C0F2F680B3
:10331C000399EDE74E788B1C252E0393F0D00027F4
:10332C00B946BB46BBF11F0F38D8A6F12003102BB2
:10333C000AD8DFE803F02A0909300909092109092B
:10334C000928092D09091F00A6F13003092B33D9CF
:10335C002A2E37D11BF0400F55F8043B40F08280E9
:10336C00002BA7BF99464BF0200BC3F100094BF083
:10337C00280B01E04BF0010B039B13F8016B03933B
:10338C00002ECFD130E04BF0020B4BF0040BF3E7E7
:10339C004BF0080BF0E74BF0100BEDE7BBF17F0F98
:1033AC0019D8A6F13003092BD2D81BF0400F03D04B
:1033BC000A2101FB0737DFE70A214BF0200B01FB49
:1033CC000939D9E72E2E06D11BF0400F40F09E8014
:1033DC004BF0400BD0E76C2E31D02BD8682E36D06A
:1033EC006A2E3CD04C2E3AD0002F46F02003B8BFAA
:1033FC002BF04002A3F16501BCBF00271FFA82FB32
:10340C00022901D9612B2FD10727073525F0070594
:10341C00DFF8A8A208351BF0080F66D056460AEB59
:10342C00070B5E4563D1A4EB0A0A06EB0A02A9EB73
:10343C0007096FE1742E9FD07A2E9DD0D4E71BF034
:10344C00800F18BF4BF4007B4BF0800B94E71BF400
:10345C00807F18BF4BF4007B4BF4807B8CE74BF4E4
:10346C00207B89E71F4687E7A6F16301122900F24A
:10347C00F080DFE811F013004F00EE00EE00EE00DC
:10348C00EE004F00EE00EE00EE00EE00EE00FE004F
:10349C00E900EE00EE001B00EE00AF0055F8043B17
:1034AC0001278DF818300DF1180AB4E755F804AB64
:1034BC00834BBAF1000F08BF9A461BF0400F14BFA4
:1034CC0039464FF0FF31504600F0FDFE0746A2E7AB
:1034DC0041462020029B984700280FDB013EB74253
:1034EC00F6D34C44A41BB14698E74E46F7E7414649
:1034FC0016F8010B029B9847002892DA98F80230D4
:10350C0043F0040388F802304FF0FF3420460DB02E
:10351C00BDE8F08F1BF0800F34D01BF4007F2CD053
:10352C00073525F00705AA4669685AF8080B2BF0F1
:10353C0010050029ADB237DA404261EB410145F488
:10354C0080650A230DF1180B5A4600F0C8FEA0EB5B
:10355C000B0301936B0662D5019B25F001019F4281
:10356C0089B240F3A180002E00F0998015F0100272
:10357C0040F09C80BB460D4623E0AA465AF8040B4B
:10358C00C117D4E7AA461BF4807F5AF8041B01D15B
:10359C000846F5E71BF4007F15BF48B208B241F3AB
:1035AC00C01141F3C031C2E750EA0103C9D11BF08D
:1035BC00400FC6D0002FC4D12BF01102BB4695B2E0
:1035CC00019740F2064115EA01021CBF00220BF1E3
:1035DC00010B2CE00A232BF010021FFA82FB1BF0CC
:1035EC00800C49D01BF400711DBF073525F0070571
:1035FC00AA46AA461ABF5AF8080B69685AF8040B6F
:10360C0050EA010545D12BF016051BF0400FADB269
:10361C0042D0002F40D12BF0170295B2019715F034
:10362C00100248D0019B002E42D103F1010B290757
:10363C005AD4EB0706D5D9456FDDA9EB0B03CB4666
:10364C0001995F185B4649E0102378264BF0100B6C
:10365C00C5E7782B04D1C6F1780343F01003BEE71D
:10366C0041462520029B98470028FFF647AF0234BD
:10367C0047E608230026B2E7AA461BF480715AF8E5
:10368C00040BBDD01BF400711ABF6146C0B280B2EE
:10369C00B6E72BF0060295B20DF1180B54E725F0A6
:1036AC001105BB46ADB28CE70D46B8E73B460D465F
:1036BC0003F1020BBBE7DDF804B082E7204C0008F5
:1036CC00194C0008CDE9043241462020029B984752
:1036DC000028FFF613AF049B059A01339945F1DCE2
:1036EC00A4EB0B019B46CC180AB341463020029B3D
:1036FC0098470028FFF602AF8EB901342744019B8E
:10370C00391B994223DC1D4655BB5546019AA9EB42
:10371C000B0922441446914434E0019F92E7414640
:10372C0030460234029B98470028E7DAE6E640F27E
:10373C0006410D42E2D015F0020F14BF2B202020C1
:10374C0015F4806F414618BF2D200134EAE741463D
:10375C003020029B9847002804F10104CFDACDE613
:10376C0006AB013D585D4146029B98470028CBDAD9
:10377C00C4E641462020029B9847002804F101042E
:10378C00FFF6BCAEA9EB0403002BF2DCC0E500BFD6
:10379C007047704700EBC100408840087047F8B58F
:1037AC000346FFF7F7FFB0FA80F0C0F11F0003EB00
:1037BC00800CDCF81060CA00171D0C4606328DB266
:1037CC0056B9012101FA00F0D9680143D960CCF84F
:1037DC001040DD539D52F8BDF1000431585AD853B6
:1037EC0003EBC0009E52C5805D52F4E7043A2DE90C
:1037FC00F041CC1D114424F0070421F007010E1BED
:10380C00F708B7FA87F24FF00008C2F12405AD00B3
:10381C000735C2F12002ED0804604146A760C4F8E8
:10382C000C80920004F1100000F0BEFD6B0043F020
:10383C00010363807B1B04EBC5025900A4F80080D4
:10384C005180A21924F83550A2F80280A35304EB3E
:10385C00C7035A88294642F001025A802046BDE827
:10386C00F041FFF79CBF002070470FB407B504A9C7
:10387C0051F8040B0191FDF793F903B05DF804EBDB
:10388C0004B070477047012801D1EFF30583FEF7B0
:10389C00C7BC01460068FFF7F6BF00210120FFF707
:1038AC00F2BF61B662B680F31188BFF36F8F7047B9
:1038BC0072B6002383F31188BFF36F8FBFF34F8F62
:1038CC0030BF62B6BFF36F8F704708B5FDF74CFC85
:1038DC00002008BD08B5062201210020FDF790FC50
:1038EC00002206201146FDF7B1FB012107220846F4
:1038FC00FDF786FC002207201146FDF7A7FB0822E6
:10390C0001210220FDF77CFC002208201146FDF766
:10391C009DFB092201210320FDF772FC00220920E6
:10392C001146FDF793FB0A2201210420FDF768FCE8
:10393C0000220A201146FDF789FB052117220846B3
:10394C00FDF75EFC002217201146FDF77FFB2822B5
:10395C0006210A20FDF754FC002228201146FDF711
:10396C0075FB002008BD002208B512201146FDF79A
:10397C006DFBBDE808401220FDF75ABBD0E924329C
:10398C00C0F898205B681A68936843F4A0039360AE
:10399C00704710B4BFF35B8F0346083850E8002F14
:1039AC00511C40E80014002CF8D1BFF35B8F12B906
:1039BC0010BCFFF7E3BF6FF00F0210BC9A657047A5
:1039CC000B6882B0A3F11402082A12D803F18043C9
:1039DC0003F504331A684868024300201A600B6828
:1039EC0003F1804303F504331B680193019B02B080
:1039FC0070476FF08500FAE70B68A3F11402082AF0
:103A0C009FBF03F1804303F504331A6849689BBFD9
:103A1C0000208A436FF085001A60704710B50A6861
:103A2C00052A25D82A23D340DB0721D54A68FF2A4B
:103A3C001CD0D3B203F1804303F504331868C2F3EE
:103A4C004234C2F3042204FA02F220EA02021A609F
:103A5C004968CBB203F1804303F504331868C1F312
:103A6C000242C1F304218A4002431A60002010BDB7
:103A7C006FF08500FBE70B68A3F11402082A0AD843
:103A8C0003F1804303F504331A684B68934314BF66
:103A9C00012002207047052B9FBF2A20D84000F040
:103AAC000100013088BF01207047704770474368A0
:103ABC0000205B689B680B60704743685B68D86844
:103ACC0042400A404240DA600020704743680020C0
:103ADC005B6819617047436800205B6859617047E7
:103AEC00436800205A68D3684B40D360704710B5C8
:103AFC0003699868F8B1884219D1DC680868A1425A
:103B0C00986000D1D860002008602AB19A680A60D9
:103B1C00DA68996002B9D960002010E0814206D1C0
:103B2C0008682060D8688142EDD1DC60EBE7044680
:103B3C0000680028F2D1002AE8D16FF0150010BD02
:103B4C0091FAA1F3B3FA83F370B50D0E0F2691FA27
:103B5C00A1F1B1FA81F144599B0006FA03F38900F3
:103B6C0024EA03048A402243425170BD91FAA1F326
:103B7C00B3FA83F370B50D0E032691FAA1F1B1FAE5
:103B8C0081F144599B0006FA03F3890024EA0304EB
:103B9C008A402243425170BD91FAA1F3B3FA83F3E8
:103BAC0070B50D0E042691FAA1F1B1FA81F14459C8
:103BBC009B0006FA03F3890024EA03048A4022439B
:103BCC00425170BD70B50B46896821B101255E6804
:103BDC000C68854001B970BD8A682A4002D0304615
:103BEC004B6898471CB1236821461C46F2E72346D4
:103BFC00FAE770B501241546072904FA01F2C8BF8B
:103C0C0001F007014FEA0223C5BF8C401C4342EA76
:103C1C00030444F08064EA07406822D415F00602DD
:103C2C0004D12146BDE87040FFF78ABF022A01D1BA
:103C3C000422F6E705F4C075802D6FEA14264FEACE
:103C4C0014220BD192FAA2F20123B2FA82F2C168C9
:103C5C00934031400B430822C360E2E7C368334012
:103C6C00F9E76B0654BF012209222146FFF768FFD2
:103C7C0015F0200218BF0422214605F01805FFF7A5
:103C8C008BFF082D05D102222146BDE87040FFF7BD
:103C9C006DBF0DB90122F7E70322F5E713469A032E
:103CAC0010B518D59C070FD55A072DD52122DC0647
:103CBC000CD542F0840213F4002F44681BD001236E
:103CCC0064688B40236111E00122F0E79C06F2D579
:103CDC0042F48272EFE713F4803207D0DC0611D481
:103CEC0013F0200F14BF4FF4827202224068FFF7CA
:103CFC0080FF002010BD5B03F8D5012364688B4066
:103D0C006361F3E78422F1E76FF08500F2E7F8B521
:103D1C001F46044640680E461546FFF76AFF032F00
:103D2C0008D1012303FA06F66368AA055B684CBF49
:103D3C001E615E610020F8BD30B503681360057923
:103D4C00046804EBC504A34202D36FF0010030BD3C
:103D5C005C798C4201D00833F0E70020F7E7436828
:103D6C00C1F34B101B6801F01F01C05801238B409D
:103D7C00034214BF0123002300201370704710B5B9
:103D8C004368C1F34B101A680123845801F01F01DA
:103D9C008B4023438350002010BD012210B5436893
:103DAC00C1F34B14186801F01F0123588A4023EA11
:103DBC0002032350002010BD38B504460D46FFF712
:103DCC00DEFF29462046FFF7E8FF002038BD38B556
:103DDC00046904F1240000F032F9206800F0E9F8DD
:103DEC00A8B10125237A142203F01F03002104F14A
:103DFC0010009D4000F0D8FA04F13803A3610223AF
:103E0C00E3610C230020656184F8203038BD6FF02D
:103E1C001200FBE7036882B00193019B4368019396
:103E2C00019B02B0704737B50269436810680D46B4
:103E3C001C68D9688368DB68B3B101AA984700286D
:103E4C0012DB1922019BAD0053436422B3FBF5F145
:103E5C00B1FBF2F002FB10131B013233B3FBF2F394
:103E6C0003EB00139BB2A36003B030BD08B54368ED
:103E7C00186802680368C2F3C002D907036848BF18
:103E8C0042F002029B07036848BF42F00402590744
:103E9C00036848BF42F02002DB0542BF6FF4807319
:103EAC0042F008020360D10701D5FFF7B3FF930777
:103EBC0001D5FFF7AFFF510701D5FFF7ABFF930615
:103ECC0001D5FFF7A7FF104608BD10B543681020B9
:103EDC001B681A681206FCD5EFF3118280F3128866
:103EEC00BFF36F8F1C68240604D482F31188BFF3D0
:103EFC006F8FEEE7596082F31188BFF36F8F10BD9F
:103F0C0008B54368186803681A0701D5FFF782FFE4
:103F1C0003689B0649BF43684FF0FF3000200B70CD
:103F2C0008BD03695B681B680B6043681B68DB6832
:103F3C0003F4C063B3F5806F2FD0A3F5C06CDCF134
:103F4C00000343EB0C030B7143681B681B6903F400
:103F5C004053B3F5805F22D0B3F5405F21D0002BE6
:103F6C000CBF012303234B7143681B68DA68DB68C1
:103F7C00D20403F4C06316D5002B14BF032304230F
:103F8C008B71436800201B685B6903F44073A3F5D5
:103F9C00407253425341CB7170470223D3E7002345
:103FAC00E1E70223DFE7002B14BF02230323E7E73B
:103FBC00704740B1C368587810F001001EBF1878E4
:103FCC00B0FA80F040097047EFF31183102383F3AC
:103FDC001288BFF36F8FFEE708B5FFF7F5FF10B53A
:103FEC00D0E9003433B90020E268537843F0010380
:103FFC00537010BD204698470028F4D00028B8BF55
:10400C004042FF28A8BFFF20E3681870ECE700F0DF
:10401C00CBB900F0BBB97047102408B5EFF311838E
:10402C0084F31288BFF36F8FFFF742FCF6E790F929
:10403C000E308B4201D0FEF743BD00207047034683
:10404C000020C3E90033C3E902007047FEF78EBDC0
:10405C00D0E9003213605A600023C0E90033704786
:10406C0008B5FFF7F5FF437B23F0020343730023EE
:10407C00836008BD38B504460D46FEF703FC637B30
:10408C0043F002036373E5B1A5602B689D4209D12F
:10409C006B68C4E900531C606C6012E06A689A4259
:1040AC00F6D01B68002BF3D094F90E2093F90E1068
:1040BC008A42F3D09142F1DD5A68C4E900321460AF
:1040CC005C6038BD10B5EFF31184102383F31288B4
:1040DC00BFF36F8FFEF7EEFB84F31188BFF36F8F86
:1040EC0010BD10B50446183000F0AEF8EFF3118196
:1040FC00102383F31288BFF36F8F627B1A4004D0B6
:10410C0081F31188BFF36F8F10BD2046BDE81040BE
:10411C00FEF704BC08B5EFF31181102282F312886C
:10412C00BFF36F8F83680BB1FFF79AFF81F3118890
:10413C00BFF36F8F08BD38B50446EFF3118510231C
:10414C0083F31288BFF36F8F437B13F0280F0BD1CF
:10415C0083680BB1FFF784FF637B51B903F0FB035A
:10416C0020466373FEF7A6FB85F31188BFF36F8FB0
:10417C0038BD03F0EB03F3E701211838FFF7DBBF81
:10418C0008B50346EFF31181102282F31288BFF3B6
:10419C006F8F0068834207D008B1FFF761FF81F38E
:1041AC001188BFF36F8F08BD0020F8E738B5EFF327
:1041BC001185102383F31288BFF36F8F0468A0421C
:1041CC000DD034B12046FFF74BFF04F1180000F07E
:1041DC003BF885F31188BFF36F8F204638BD002460
:1041EC00F7E7C117633008B54FF064024FF00003D6
:1041FC0041F10001FCF76EFAC117FEF781FD642353
:10420C00584308BDEFF31181102282F31288BFF3DB
:10421C006F8F027BD2070CD581F31188BFF36F8FA0
:10422C00002383F31188BFF36F8F0423184602DF3A
:10423C007047437B1B0704D581F31188BFF36F8F45
:10424C0070470122FEF76ABB10B5EFF31184102200
:10425C0082F31288BFF36F8F03683BB1FEF744FE05
:10426C00002084F31188BFF36F8F10BD6FF0150021
:10427C00F7E708B5FEF756FF08BDFEF753BF10B5BC
:10428C000446FFF7E1FFA8B9636A0BB120469847D3
:10429C0004F11800FFF774FF60B1FFF713FFEFF3A1
:1042AC001180102383F31288BFF36F8FBDE8104089
:1042BC00FEF798BC10BD10B400F10C04C0E9034427
:1042CC0010BCFFF793BA024610B501448A4213465C
:1042DC0003D01C780132002CF8D1181A10BDF0B59F
:1042EC0004461046C3F13707FFB203F01F03082B37
:1042FC00E6B233D0102B3ED06508A40844EA817492
:10430C0045EAC1752D194FEA910242EB5102290978
:10431C0041EA02716D1842EB1212290A41EA02615C
:10432C006D1842EB1222290C41EA02416D1842EB46
:10433C001242AD1842F10002EC0844EA4274D10872
:10434C0004EB8402A6EB4205EDB2092D0CD9013425
:10435C00A5F10A0541F10001EDB212E0E40844EACE
:10436C00417406F00705C908303554EA010200F81B
:10437C00015BBCD1F0BD240944EA017406F00F05C1
:10438C000909092D84BFED19EDB2EDE70A449142FC
:10439C0000F1FF3300D1704710B511F8014B914279
:1043AC0003F8014FF9D110BD03460244934200D1EA
:1043BC00704703F8011BF9E70148006870470000DB
:0443CC00AC0400201D
:0843D0006AC3FF7F0100000039
:1043D800250C0008000000001918000868440008AF
:1043E800110C000800000000C132000800000000A5
:1043F800000000007C44000889190008CC4400082B
:1044080089190008F4440008E138000890440008BD
:1044180089190008E044000889190008B844000810
:1044280089190008A4440008DD1E00080845000892
:10443800DD1E00081C4500083919000800000000AE
:10444800D11F0008000000009D11000800000000B6
:104458004917000830450008DB3D000844450008BE
:10446800284B0008000000002C48000858010020D4
:10447800000000007B4B00081049000814490008A0
:104488006401002000000000FD4A00080000000050
:104498000000000054010020C0040020354B000833
:1044A80048480008AC4800085A0100204005002090
:1044B800434B00085C480008AC4800085C01002039
:1044C80050050020514B000870480008AC4800080F
:1044D8005E010020600500205F4B0008844800084A
:1044E800AC48000860010020700500206D4B0008F2
:1044F80098480008AC4800086201002080050020A8
:10450800944B00084C490008E44900086801002061
:1045180014010020A44B000898490008E449000849
:104528006A010020240100201B4B000850470008A6
:10453800A047000856010020000000208C4B00080E
:10454800244900083049000866010020D8000020EE
:1045580000000000A738000800000000A738000885
:1045680000000000A738000800000000A738000875
:1045780000000000A738000800000000A738000865
:10458800FB4A0008C1110008F94A0008C1110008D7
:10459800F74A0008C1110008F54A0008C1110008CF
:1045A800F34A0008C111000800000000A7380008FD
:1045B80000000000A738000800000000A738000825
:1045C80000000000A738000800000000A738000815
:1045D80000000000A738000800000000A738000805
:1045E800000000008116000800000000A73800083D
:1045F80000000000A738000800000000A7380008E5
:1046080000000000A7380008F14A0008C11100089E
:1046180000000000A738000800000000A7380008C4
:1046280000000000A738000800000000A7380008B4
:1046380000000000A738000800000000A7380008A4
:1046480000000000A738000800000000A738000894
:1046580000000000A738000800000000A738000884
:1046680000000000A738000800000000A738000874
:1046780000000000A738000800000000A738000864
:1046880000000000A738000800000000A738000854
:10469800EF4A0008C111000800000000A738000810
:0846A80000000000A738000823
:1046B00040020020D006002000020000010A00088D
:1046C00000000000000000000000000004000000E6
:1046D00000000000D84A0008FFFFFFFFFFFFFFFFB8
:1046E000B0020020D0080020000200009F37000820
:1046F00000000000000000000000000005000000B5
:1047000000000000E24A0008FFFFFFFFFFFFFFFF7D
:10471000D0010020D005002000010000690A000837
:104720000000000000000000000000000300000086
:1047300000000000CA4A0008FFFFFFFFFFFFFFFF65
:1047400030450008000108040000000000000C00D3
:104750000024014073390008804700080100000070
:104760000000000088470008020008000E001D003D
:104770002A0038004800F00000010100FF0060003E
:10478000180000000002000090470008010000002F
:10479000984700080100000002000000000000002F
:1047A0000513000811140008E40C000000000000CC
:1047B0000000100000002000000030000000400059
:1047C0000000500000006000000070000000800049
:1047D000000090000000A0000000B0000000C00039
:1047E0000000D0000000E0000000F0000002000027
:1047F000050200000A0200000F020000140200007F
:104800001902000000010000050100000A0100007B
:104810000F01000014010000190100000000000059
:10482000050000000A0000000F000000CD3900085C
:10483000053A000800000000CD170008833A000880
:1048400000000000293A0008FFFF000000180140A6
:10485000040000001800000040000000FFFF0000FE
:1048600000140140030000001800000020000000B8
:10487000FFFF0000001001400200000018000000CF
:1048800010000000FFFF0000000C014001000000CC
:104890001800000008000000FFFF000000080140B1
:1048A000000000001800000004000000A93C0008FF
:1048B000BB3A0008C73A0008D93A0008E33A0008B2
:1048C000ED3A0008B9190008FB3A000800000000A2
:1048D000F4440008E0440008CC440008B844000850
:1048E000A4440008000000000000000000000000D8
:1048F00000000000000000000000000000000000B8
:1049000000000000000000000000000000000000A7
:10491000001002406B3D00088B3D0008A73D0008D9
:10492000C53D00082B0000009605000001000000B6
:10493000000000000000000000000000351C00081E
:104940008D1B000800000000000000000044004033
:104950007C440008110200007049000801000000BA
:10496000000000000000000000000000784900087E
:104970001C00000000000200804900080100000047
:10498000884900080200000008180100000000002B
:104990000D18010000000000003801407C440008B0
:1049A0008E010000BC49000801000000000000006A
:1049B0000000000000000000C449000818000000CA
:1049C00000400000CC49000801000000D449000864
:1049D0000200000024100100000000002910010066
:1049E000000000000D3F0008D73E0008793E000897
:1049F000A11D00082F3F0008D8430008D843000835
:104A0000484400085044000868440008684400080E
:104A1000001000000030647A69616C616D002564EB
:104A200020002E0074696D65725F73746172746921
:104A30006E67210A006173686B64616B68736B64F5
:104A40006861730074696D65725F73746F7070690B
:104A50006E67210A006770696F5F70696E5F636FD0
:104A60006E666967206572726F72006770696F5F4A
:104A700070696E5F696E74657272727570745F636F
:104A80006F6E666967206572726F72006164635F42
:104A90006164645F63616C6C6261636B20657272F8
:104AA0006F72006164635F6368616E6E656C5F73F3
:104AB00065747570206572726F7200696E6974201A
:104AC000636F6D706C657465640070726F6365739D
:104AD000735F696E7075740063616C63756C61748B
:104AE0006500636F6D6D756E696361746F72000A46
:104AF00006050504010301020101010001696E744C
:104B00006572727570742D636F6E74726F6C6C6504
:104B100072403430303130343030006164634034BE
:104B200030303132343030007263634034303032F0
:104B300031303030006770696F4034303031313897
:104B40003030006770696F4034303031313430308C
:104B5000006770696F403430303131303030006779
:104B600070696F40343030313063303000677069C5
:104B70006F403430303130383030007265736574D6
:104B80002D636F6E74726F6C6C657200646965740E
:104B9000656D700073657269616C4034303030341B
:104BA0003430300073657269616C403430303133B9
:104BB0003830300000000000000000000102030453
:104BC00006070809010202030405060708090A0B83
:104BD0000C0D0E0F10106D61696E002A2A2A2042FA
:104BE0006F6F74696E67205A6570687972204F53D1
:104BF000206275696C642076332E372E302D7263F7
:104C0000322D3137362D6761393132626236663185
:104C1000343237202A2A2A0A00286E756C6C290043
:084C20002A666C6F61742A0022
:104C2800000000000000000000000000000000007C
:104C380061310008000000000000000000000000D2
:104C480020000020200000209F39000800000000FC
:104C5800000000000000000000000000000000004C
:104C6800400000204000002000000000010000007B
:104C7800500000205000002000000000010000004B
:104C8800000000000000000000000000000000001C
:104C9800000000000000000000000000000000000C
:104CA80000000000000000000000000000000000FC
:104CB80000000000000000000000000000000000EC
:104CC80000000000000000000000000000000000DC
:104CD800C40500200200000000000000CC440008C9
:104CE80073380008590C000800000000D738000885
:104CF8000000000000000000304500080804FF3FE5
:104D08001000000000240140000000000000000026
:104D1800000000000000000000000000000000008B
:104D2800000000000000000000000000000000007B
:104D380000000000000000001C01002000C201006B
:104D480000010300000000002C01002000C2010047
:104D5800000103000024F400640000003C0100206E
:104D68003C010020FFFFFFFFFFFFFFFFFFFFFFFFEA
:044D7800FFFFFFFF3B
:104D7C000000000000000000000000000000000027
:084D8C0000000000000000001F
:044D9400FFFFFFFF1F
:104D98000000000000000000613100080000000071
:104DA80000000000000000008801002088010020A9
:104DB800310A0008000000000000000000000000A8
:084DC8000000000000000000E3
:104DD000A8010020A80100201E0000000F00000014
:104DE000D017002092190020D0170020D0170020E3
:084DF0000000000000000000BB
:044DF80015E015E0CD
:0400000508000F21BF
:00000001FF
